:020000022000DC
:1060000000000120756302005D6302005F6302000F
:106010006163020063630200656302000000000028
:1060200000000000000000000000000067630200A4
:1060300069630200000000006B6302006D630200F0
:10604000999702006F630200DD9B02006F630200FC
:106050006F6302006F630200599A02006F630200CF
:106060006F6302006F6302006F6302006F630200E0
:106070006F630200FD9C02006F6302006F63020009
:106080006F630200657302006F6302006F630200BA
:106090006F6302006F630200351F03006F6302002D
:1060A0006F6302006F6302006F6302006F630200A0
:1060B0006F6302006F630200000000000000000038
:1060C0006F6302006F6302006F6302006F63020080
:1060D0006F6302006F6302006F6302000000000044
:1060E00000000000000000000000000000000000B0
:1060F00000000000000000000000000000000000A0
:10610000000000000000000000000000000000008F
:10611000000000000000000000000000000000007F
:10612000000000000000000000000000000000006F
:10613000000000000000000000000000000000005F
:10614000000000000000000000000000000000004F
:10615000000000000000000000000000000000003F
:10616000000000000000000000000000000000002F
:10617000000000000000000000000000000000001F
:10618000000000000000000000000000000000000F
:1061900000000000000000000000000000000000FF
:1061A00000000000000000000000000000000000EF
:1061B00000000000000000000000000000000000DF
:1061C00000000000000000000000000000000000CF
:1061D00000000000000000000000000000000000BF
:1061E00000000000000000000000000000000000AF
:1061F000000000000000000000000000000000009F
:10620000354936480A1A02D0072291438D4634494F
:1062100034480A1A06D00722914381F309880222E2
:1062200082F3148830483149314A00F044F831484B
:106230003149324A00F03FF831483249324A00F0E1
:106240003AF832483249334A00F035F83248334997
:10625000334A00F030F833483349344A00F02BF821
:1062600033483449344A00F026F83448344900228F
:1062700000F02CF833483449002200F027F8334866
:106280003349091A082902DB002202604160314AC1
:1062900090471F481F49884205D00268043003B464
:1062A000904703BCF7E700208646EC46002000211B
:1062B000294A9047FEE7884207D0521A05D0037852
:1062C00001300B700131013AF9D17047884202D098
:1062D00002700130FAE770470000012000E0002062
:1062E000000001200000012088AF0300E42B002003
:1062F0004C2C0020D0630200D0630200A0580300A1
:1063000088AF0300E42B0020E42B00207C5A03001C
:106310007C5A03007C5A03007C5A03007C5A030019
:106320007C5A03007C5A03007C5A030088AF0300A8
:10633000F0AF03004C2C00204C2C00204C2C0020F3
:106340001A4400201C4400201C4400201C4400204F
:106350001C6400209D63020039C50200FEE7FEE7D1
:10636000FEE7FEE7FEE7FEE7FEE7FEE7FEE7FEE705
:1063700000F002B8FFF7FCBF0F484FF00701884359
:1063800085460E4880470E48016841F4700101605F
:10639000BFF34F8FBFF36F8FFFF732BF09480A4932
:1063A0000A4A884207D0521A05D0037801300B7090
:1063B0000131013AF9D170470000012085C902007E
:1063C00088ED00E0685A0300D02B0020E42B002069
:1063D000022004F05FB900002DE9F04781460D4628
:1063E00004F078F90328044604D8012D04D025B31D
:1063F000022D2FD0BDE8F087194D47003A18A91893
:10640000AE5C4A7852B1DFF86880164842464FF4D5
:10641000804100F048FD08B988F800903B192B44F2
:106420009A78114B1A55002EE4D0104B1B68002BA4
:10643000E0D03046BDE8F04718470A4800F04BFD71
:10644000074B04EB440213449E78074B1B5DB34299
:10645000D0D1E8E7024B00EB40041C446678E2E749
:10646000B02C0020702C0020C92C0020C42C00204F
:106470004C2C002002210078FFF7AEBF08B5094B75
:106480001B7853B1002004F0DBF8012004F0D8F8A9
:106490000320BDE8084004F0D3B8BDE8084004F08C
:1064A000DBB800BF4D2C0020F8B57B4C23780546A7
:1064B0001BB100232370FFF7E1FF172D00F2888046
:1064C000DFE805F00C17174354657680888D888DBA
:1064D000959A9A9A9A9AC4C9D1D9E4E4FFF7CEFF63
:1064E0006E4800F0F8FC6E4B002204461A702046FD
:1064F000F8BD002004F08AF8F8B1002004F0A0F8FC
:10650000022D0CBF4FF4E1614FF47A61644B1D70B2
:106510004FF400404FF47A740025E0FB01454FF43E
:10652000FA620023204629460BF0F3FE00220146C2
:106530005A48BDE8F84000F0B6BC04F075F8022DEA
:106540000CBFC8214FF4C871E0E7002004F05EF8EA
:1065500040B1002004F074F84FF44871504B03220E
:106560001A70D5E704F060F8C821F7E7002004F0BE
:106570004DF838B1002004F063F84FF47A61484BCD
:106580000422EDE704F050F84FF4C871F7E700205B
:1065900004F03CF848B1002004F052F8404B0522CA
:1065A0001A7040F6CD410022C2E704F03DF8F5E74D
:1065B000002004F06FF83A4B06221A70002240F2D5
:1065C0006661B5E7002004F02FF8354B07221A70FA
:1065D00000248CE70120207004F05CF8EEE7012035
:1065E000207004F057F800224FF40051A0E704F0A7
:1065F00042F82B4B0C22EAE72A482B4E00F06BFCAA
:10660000D5F1110504461CD0D8B9012D13D0C823EB
:106610005D434FF400474FF47A7000214FF4FA6263
:106620000023C7FB05010BF074FE224601461D48FE
:1066300000F039FC0446022003F0F6FF012333701A
:1066400055E7022003F0FCFF0023F8E7FFF716FFF1
:10665000134B1222BBE7FFF711FF002003F0E4FF0A
:106660000F4B1322B3E7FFF709FF012003F0DCFF14
:106670000B4B1422ABE7FFF701FF002003F0D4FF20
:10668000012003F0D1FF064B1522A0E703F0F3FF32
:10669000034B1D709CE700BFC02C0020902C0020F5
:1066A000C82C0020502C00204D2C0020044B1B68CF
:1066B000DB0703D5034B1878FFF7F6BE704700BF22
:1066C000BC2C0020C82C0020032801D803F0F4BF04
:1066D00000207047044B1B6813F0010301D0FFF743
:1066E000E3BE1846704700BFBC2C002038B51C4BD9
:1066F00018601C4B10F00204054619601AD01A4BA2
:106700001A480E221A700F22DA7010229A71112282
:106710005A72042140F2333200F054FA044648B968
:1067200000F0A6FA044628B90146114A114800F0C3
:10673000AFFB0446EB0711D5012003F0E3FF6CB972
:1067400021460D4A0D4800F0A3FB044630B90C4A1F
:106750000C480121BDE8384000F09ABB204638BD06
:10676000BC2C0020C42C0020B02C00207C5A03003C
:1067700075640200A05A0300AD660200A45A03002B
:10678000D16302009C5A0300032813D8012A0BD1BD
:10679000012908D100F10E02D2B200EB40000C4BEF
:1067A0001A540020704700220129F6D04BB24BB199
:1067B000022901D007207047054B00EB4000184428
:1067C0004270EEE7024900EB400008448270E8E7BF
:1067D000B02C0020032808B512D803F08DFF8000EC
:1067E00000F1A040D0F8003723F44033C0F8003760
:1067F000D0F8003743F44033C0F80037002008BD1C
:106800000620FCE708B5012202210020FFF7BCFFAB
:1068100008B1072810D1072202210120FFF7B4FF99
:1068200008B1072808D100210A220846FFF7ACFF6B
:1068300010B1072808BF002008BD00000388102BF6
:1068400010B502D0112B1ED010BD1A4C2168B1B961
:1068500001220846FFF798FF08B1072824D1072234
:1068600002210120FFF790FF08B107281CD1042264
:1068700002210020FFF788FF08B1072814D1236800
:1068800001332360E0E70B4A1368013B1360002BE0
:10689000DAD1FFF7B7FF0028D6D0074B1B68002BD3
:1068A000D2D0BDE810401847034B1B68002BE6D040
:1068B0009847E4E7D42C0020D02C002008B5002015
:1068C000FFF788FF08B1062806D10120FFF782FFF5
:1068D00010B1062808BF002008BD00000D4B10B500
:1068E00018600C4629B10120FFF7EEFE40B10223EB
:1068F0002370094B1B6853B9BDE81040FFF782BFF6
:10690000FFF7E2FE08B10B23F2E72070F1E7002069
:1069100010BD00BFD02C0020D42C002005F076BB89
:106920000021084605F026BB10F1360F0AD058B1F9
:1069300048F2115248F2165310F1380F0CBF1046AE
:106940001846704748F21450704708B5084611467B
:1069500002F074FE002008BD37B50446002002F0A6
:10696000EFFD054678B90434204605F058F8009547
:106970002B462A460549204605F0C9F803B0BDE874
:106980003040FFF7D1BF03B030BD00BF4B690200FC
:1069900008B5043005F048F802F0FEFD002008BDFF
:1069A00008B5043005F01CF9BDE80840FFF7BCBF8E
:1069B00008B5114604301A4605F045F8BDE8084010
:1069C000FFF7B2BFC30710B507D4F0234008054A4C
:1069D000145C23401943115410BD0901C9B20F239F
:1069E000F4E700BF082D002030B5094B1C78094B97
:1069F000196800239C4202DC0022104630BD11F8C9
:106A00003350854201EBC302F7D00133F2E700BFF8
:106A1000D82C0020182D002070B504460D46FFF735
:106A2000E3FF30B1436823B129462046BDE87040FA
:106A3000184770BD034B044819680022490800F04C
:106A400032BA00BFDC2C0020E02C002010B5C0B210
:106A5000FFF7CAFF0446007802F0F4FF63785A1E7D
:106A600053425341834208D1044BD3E900231343DB
:106A700003D1BDE81040FFF7DDBF10BD002D0020A1
:106A800037B54308364AD35CC2074CBF1B0903F035
:106A90000F0304460D46042B36D8DFE803F0032627
:106AA0002D393D0081B30121FFF78CFF00230DF14B
:106AB00007008DF8073000F0E9FA0122A4F1200365
:106AC000C4F12000274902FA03F322FA00F003433D
:106AD00002FA04F4D1E9002014430343C1E900435E
:106AE0009DF8070000F0F6FA0EE0002918BF022119
:106AF0002046FFF767FF07E041B10321FFF762FF80
:106B000001212046FFF788FF03B030BD0121EFE7E8
:106B10000029F9D10421EBE709B10321E8E7FFF7E8
:106B200051FF29462046FFF777FF0DF107008DF84A
:106B3000075000F0ABFA0122A4F12003C4F12000B9
:106B4000084902FA03F322FA00F0034302FA04F4BC
:106B5000D1E9002022EA040420EA0303BEE700BFD3
:106B6000082D0020002D00202DE9F041124E134F7A
:106B700000243378A34208DC114BD3E900231343EC
:106B800018D0BDE8F041FFF755BF3D6805EBC408DC
:106B900015F8340002F056FF98F801104B1E5942C8
:106BA00059410A1A514215F834005141FFF768FF64
:106BB0000134DEE7BDE8F081D82C0020182D00203C
:106BC000002D0020092AF7B505460C4616463DD98A
:106BD00002F076FED8B11E4B1E481D601E4B1F4FA3
:106BE0001C701F4B002110221E600BF0D7FC1D4BA8
:106BF00000200021C3E90001013CE4B20326FF2C80
:106C00000BD1194A1948002100F042F903E002F0C3
:106C10001FFE0028DFD003B0F0BD20B29DF8063083
:106C20008DF8046005EBC00223F007038DF80630F1
:106C300001A9937815F830008DF805303A4602F036
:106C400049FE013CE4B20028D9D0E4E70720E2E79E
:106C5000182D0020082D0020D82C00204D6A02009D
:106C6000DC2C0020002D0020696B0200A85A0300D4
:106C700070B5084D084E00242B789C4201D30020AB
:106C800070BD3368012113F8340002F097FE01341F
:106C9000F2E700BFD82C0020182D00201FB50021DE
:106CA000039001AA44F20100CDE9011100F004F8BB
:106CB00005B05DF804FB000010B572B604F00EF9E3
:106CC00003F03EFF0028FBD1104B114C1149E41A90
:106CD000E408240444F0010004F09CF80E4B1B6807
:106CE000DB0700D500BE0D4944F0020004F092F825
:106CF000BFF34F8F0A490B4BCA6802F4E06213439B
:106D0000CB60BFF34F8F00BFFDE700BF60590300AA
:106D100090590300B75A0300F0ED00E0C35A030096
:106D200000ED00E00400FA05D0E90223D1E90201F8
:106D3000994208BF90422CBF0120002070470000FC
:106D40002DE900480C4800F0F8FA0C4BD3E9002379
:106D500012EB000B43F1000C094BD3E900239C45D7
:106D600008BF93455846614603D21BF180704CF131
:106D70000001BDE8008800BFE42B0020202D00208A
:106D8000982D002037B505460C460A4801A901F0A8
:106D900098FA60B10570446001A9064801F0BBFA99
:106DA00018B1054800F0CEFA002003B030BD042031
:106DB000FBE700BF842D0020E42B0020194B1B783B
:106DC0002DE9304804461BB900252846BDE8308827
:106DD0000028F9D0037F03F0FF05002BF4D0FFF764
:106DE000AFFFD4E90223994208BF904215D323692B
:106DF00003B92377D4E90530984721690029E3D006
:106E0000237F03F0FF05002BDED0D4E9022312EB31
:106E1000010B43F1000CC4E902BC2146024802F018
:106E200034FAD2E7282D0020D45A030013B5114BB1
:106E300011491868019008235822104801F00CFAF3
:106E4000044698B90E4A0F4801A900F067F90446B4
:106E500060B901210B4800F053FA01230A4A09489E
:106E6000194600F0B9F9094B01221A70204602B008
:106E700010BD00BFD05A03002C2D0020842D00200F
:106E8000F96E0200E42B0020FFFF7F00282D002078
:106E90003AB103685A614A1E5142514119610020BA
:106EA00070470720704738B5037F04460D4683B905
:106EB0008261FFF745FF421941F10003C4E9022353
:106EC000236903B1256121460020BDE83840FFF762
:106ED00059BF002038BD0023014603770120FFF78A
:106EE00051BF401A20F07F4070470000014800F079
:106EF00024BA00BFE42B00202DE9F04F85B00746EF
:106F000000F006FA40B1594AD2E9003113F180731A
:106F100041F10001C2E900310021384600F007FAD2
:106F200038B1534C236823B12068FFF747FF002393
:106F300023600121384600F0FAF920B1FFF700FF85
:106F40004C4BC3E9000103A94B48494D4B4C4C4EF7
:106F500001F0F1F9002845D1DFF820A1444CDFF819
:106F600028B1504602F0A7F92368002875D07BB1FC
:106F70002368D0E90201D3E90223994208BF904275
:106F80002DD223681B7F1BB12168504602F07DF98A
:106F9000504602F08AF9D0E9026305460193FFF7F3
:106FA000CFFE019BB6EB000863EB0109B8F1010FBE
:106FB00079F1000344DB334EB0453FD9FFF796FF2C
:106FC00082194FF496030021584600F025F9002855
:106FD0003ED1236813B9384600F0F6F8256005B0B5
:106FE000BDE8F08F0378012B1DD05BB1022B11D1CE
:106FF0004FF0000A204602F058F9002833D080F8FC
:107000001CA0F7E741680B7F23B901230B772046CB
:1070100002F03BF903A9184801F0B8F903A9164892
:1070200001F089F996E741682B68994202D1002363
:107030002B60EFE7204602F041F9EBE7AA68C0E7D2
:107040000021584600F069F92846FFF7B7FE01E035
:107050000D28F9D00023236083E7002BBFD13846E9
:1070600000F0B6F8BBE701233370D3E7202D0020F2
:10707000A02D0020982D0020842D0020D45A03003C
:10708000282D0020FFFFB400E42B002070B5EFF3A3
:10709000108672B60C4A946801239CB993600B4B1E
:1070A0000B4DD3F8801029401160C3F88050D3F8FD
:1070B000841051604FF0FF32C3F88420047006B989
:1070C00062B670BD0370FAE7A42D002000E100E075
:1070D000FC06FFBD084B9A6810B55AB150B9EFF3E2
:1070E000108172B6054A1C6814605C685460986030
:1070F00001B962B610BD00BFA42D002000E100E080
:10710000435882B03BB10023435043580193019B45
:10711000012002B070471846FBE70000F8B5224B8B
:107120004679224D43F82620214A224BF7009B1A2C
:10713000EA19DB0812791B0432B143F002001E4940
:1071400003F068FE0820F8BD02680C88C2F8084504
:1071500090F904208978002AA8BF02F1604CD4B2CB
:10716000BABF04F00F0EDFF858C00CF5614C4FEABF
:107170004111C9B2B4BF0CF80E108CF800135209BB
:107180000121DFF840C004F01F042F4401FA04F489
:107190004CF82240397145F83600084943F00300A5
:1071A00003F038FE0020CEE7B82D0020B02D0020DF
:1071B00060590300A0590300F65A0300185B03004E
:1071C00014ED00E000E100E0036801221A6070475E
:1071D000036801225A60704773B501F15005AD0094
:1071E0000068ADB24FF480348C400026C0F80843EC
:1071F000C0F84843465101F5A8714559019522F060
:107200007F42019D40F82120C0F844430BB1C0F8F3
:10721000044302B070BD00002DE9F74F884699463F
:107220004FF48036036808F150058E404FEA880A13
:10723000AD00C3F84863ADB2C3F80863074603EB7B
:107240000A00D3F804154FF0000B22F07F44D0F869
:107250004025C0F8401543F805B05B590093009BEA
:10726000531A23F07F43012B0BD1244B4FF4806042
:1072700043F0010398473B6843F805B05B5901931D
:10728000019B3868D0F80455C0F84463631B23F0B1
:107290007F43012B1AD108F5A878184B013440F828
:1072A000284043F001034FF4806098473B68D3F8CF
:1072B00004359D4208D13B680020C3F84463C3F8FD
:1072C000046303B0BDE8F08F0D20FAE78244C9F1F2
:1072D000FF19CAF84045D0F80435E21A013A22F005
:1072E0007F4209F57F499145EED3002AE3D101346D
:1072F000CAF84045D0F804259342DBE7F05A030072
:1073000003680222C3F8442309B1C3F80423704779
:107310004FF482710068FFF7F3BE4FF4803303FA35
:1073200001F10368C3F84813C3F8081370475031DC
:10733000890089B20068FFF7E3BE0368D3F804054B
:107340007047000090F9043001215A0903F01F032F
:1073500001FA03F34032024941F82230704700BF7E
:1073600000E100E0024B034A1B681068184700BFA9
:10737000B82D0020B02D002070B5064D0646002423
:1073800055F8043B0BB1304698470134042CF7D133
:1073900070BD00BFC82D0020033080B240F2FE3324
:1073A000984230B51FD8134B1A783AB91C895D89B9
:1073B0002C440444A4B2B4F5806F0AD91A7DAAB94A
:1073C0009A8BDC8B2244024492B2B2F5806F0DD8C6
:1073D00001220A801446142202FB04335A89104405
:1073E0005881002030BD48F20860FBE748F2066093
:1073F000F8E700BFFC2D00200B4A0C4B51881420ED
:1074000000FB0131CB6833B90420496810700122B8
:10741000074801F065BB05230649137002238B80E2
:10742000012200230968F3E7E02D0020FC2D002055
:10743000D02B0020C42E002007B50023054900935F
:10744000054A09680548082301F0B4FA03B05DF85D
:1074500004FB00BFC42E0020385B0300D02B0020AB
:1074600007B50023009301460823034A034801F0AF
:10747000A1FA03B05DF804FB305B0300D02B0020C1
:1074800013B500230C46009301460423074A08481D
:1074900001F090FA38B9074B142202FB043401239F
:1074A000237402B010BD48F20D60FAE72C5B0300B4
:1074B000D02B0020FC2D002037B50A480A4B42682B
:1074C0009C88196853880325033305709BB20020FC
:1074D00000909B0001EB8401044801F06BFA03B0BB
:1074E00030BD00BFE02D0020C42E0020D02B002096
:1074F00010B50146044800F0E4FE1C2204460021B9
:107500000BF04CF8204610BDB02E002068B1026888
:10751000084B9A4209D14068074B984207D0013383
:1075200098420CBF012003207047032070470020C1
:10753000704700BFDEC0ADDEFE011EF1438803339D
:1075400000EB830399420BD382884FF6FF739A4274
:1075500008D0038833B18068431C584258417047B3
:1075600002207047012070472DE9F8430223DFF81D
:1075700060800B800D46174600F5805600F1080428
:107580004FF00109B4420FD2236801330CD03146C9
:107590002046FFF7D3FF48B10FB187F800900228CB
:1075A0000BD14FF480632B80BDE8F883A368D8F833
:1075B0000020934201D9C8F800302B886288033339
:1075C00013442B806388033304EB8304DAE700BFA2
:1075D000F42D0020154A142303FB002070B50B681E
:1075E00044680D4604F58056ABB15C88033403EB68
:1075F0008404B4420DD2236801330AD031462046B8
:10760000FFF79CFF01280BD010F0FF0F05D00228D8
:10761000EFD1002003E00834EBE72C60012070BDBF
:107620006388033304EB8304E3E700BFFC2D0020F1
:10763000436873B504460D466BB3244AD1688B4248
:1076400029D31269934226D813F0030023D1204A8C
:107650002189128991421ED121689A6891421AD1DA
:107660001C4A51688B4203D901F580518B420DD3DE
:10767000926993420CD902F58052934208D20123B9
:107680002B80B0FA80F0400902B070BD0346F7E7E6
:1076900048F20960F5E700232B801E46019601A9F8
:1076A0002888FFF797FF30B92B8801339BB2012B55
:1076B0002B80F3D9E8E7019B226899689142EED1CB
:1076C0006360034B1B892381DEE700BFD02B0020C2
:1076D000E02D0020FC2D00202DE9F8431C461D4B19
:1076E0001B7806460F46154673B382B37CB3DFF8AA
:1076F0006C804FF01409A388012B02D948F209606D
:1077000020E009FB03F318F803302BB92146A088C9
:10771000FFF760FF20B92060A3880133A380EAE768
:1077200023681EB1998832889142EFD11FB1198820
:107730003A889142EAD19A68C5E90023064B1B8931
:107740002B810020BDE8F88348F20160FAE748F297
:107750000460F7E7D82D0020E02D0020FC2D00204C
:1077600008B5074B191D5888FFF734FF18B1BDE85D
:107770000840FFF7A1BEBDE80840FFF73DBE00BFCF
:10778000E02D00202DE9F04FA34FDFF8B09289B033
:107790000646B8463B6823B94946A04800F0CBFDF1
:1077A0003860D8F8005029784B1E052B00F2FE8077
:1077B000DFE813F0060060006000F200F2006401F0
:1077C0002EB1974B00225A604FF40644F0E02B791B
:1077D000032B1DD8DFE803F015022B3691490B78F7
:1077E000022B08461AD00B7D022B4FF0010317D154
:1077F00014225343C2180020C8545068FFF730FECB
:1078000003E001232B71FFF717FE002800F0BE8074
:10781000834B00225A6048F20D64C9E00023E7E779
:107820007F4A13700023536041F61D54C0E07E4927
:107830007E48002302222B718A800122096801F010
:107840004FF9E2E7784C00262E712068754DFFF75E
:1078500007FE774BD4F800C05A8814235343EA1824
:10786000EE5451682160A188C2F804C0118102223F
:10787000A280CAE7B5F814A0AA7DDFF8A8B1AEB11E
:10788000022AEB8806D9142101FB0AB1DA1C088907
:1078900002440A81142202FB0ABAC3F57F43BAF8F4
:1078A0000A20FD331344AAF80A308DE7142303FBA2
:1078B0000AB318895C6804EB8004062A69D8DFE8FB
:1078C00002F0274E36441D5A040041F61D54AA7D8D
:1078D000EB88022A06D9142101FB0AB1DA1C0889B7
:1078E00002440A81142202FB0ABAC3F57F43BAF8A4
:1078F0000A20FD331344AAF80A3059E04D484E4996
:1079000000234360AB690360FFF792FE002874D048
:107910000223AB75002300930423EA182146434851
:1079200001F048F8002831D048F20D64CFE72B6908
:10793000002B14BF03230123AB750023009305F133
:107940000C02042304F10801E9E70123AB750022CE
:10795000EB8800929B002A6904F10C01DFE7032900
:107960000CBF05230623AB7500230093042305F108
:107970000802E118D3E70623AB752F4B19882D4B6E
:107980005868FFF77DFD04460028A0D109B0BDE886
:10799000F08F48F20E649AE7002E7FF415AF2B7932
:1079A000012B4DD0EBB1022B3FF43EAF48F20E64F9
:1079B0001422002103A80AF0F1FD41F61D539C4258
:1079C00008BF0024D8F8003004941A78023A042A38
:1079D00000F20881DFE812F0E900F500180120014B
:1079E000270102232B710DF10A01EB68039303A811
:1079F000CDE90466FFF71CFE10B948F20964D7E729
:107A00000498BDF80A108388EB8003882B81FFF768
:107A100037FD044629E000BFF82D0020B02E0020DD
:107A2000D82D0020FC2D0020C42E0020D02B0020BB
:107A3000E02D0020BC2D0020D02E0020F02D0020B5
:107A4000DFF800A203AA53463146A81DFFF744FE03
:107A5000044668B9BAF804100498FFF711FD04460B
:107A600048F209639C423FF4DFAE002CA0D18DE7C1
:107A70000822314650460AF091FDF1E7002E7FF4CE
:107A8000A3AE6B4B1A7BAAB11E731A78013A062A71
:107A90008CD801A151F822F03F7B0200657B0200E7
:107AA000837B0200897B0200AD7902008F7B02009C
:107AB000A17B02001A78072AE7D801A151F822F029
:107AC000E17A02008B7A02008B7A0200077B0200C7
:107AD0001B7B02003B7B02003B7B0200037B02001E
:107AE0001A89544901321A8100225A801A730A787D
:107AF000B2FA82F252099A720A7DB2FA82F25209FD
:107B0000DA72012207E04C4958688A8840880332BB
:107B100002448A8002221A70B7E7464C5A884649C6
:107B2000142505FB0242086854685060888810815B
:107B300002228A800C600622EDE70722EBE79A7AA0
:107B400032B9DA7A8AB900221A705A805A606BE622
:107B5000384900229A72CA68002AF2D1097C0029A9
:107B6000EFD05A80FFF7FCFD53E70022DA72314A6A
:107B7000116A0029E7D192F82420002AE3D00122DB
:107B8000EFE7FFF799FC44E7FFF736FC41E7294AA6
:107B90005B88142101FB03235868FFF761FC38E779
:107BA00000225A60FFF748FC33E701228DF80C20D1
:107BB0001A89ADF818209A88DB68ADF81A20059369
:107BC00010E002228DF80C201A89ADF818209A884E
:107BD000ADF81A20DA689B7D05929A1F53425341F3
:107BE0008DF81C3003A8FFF7C7FB00264946134851
:107BF000C8F8006000F0CAFB0121114800F079FCD0
:107C000000287FF4C7ADC1E603228DF80C20DA8886
:107C1000ADF818201A89CFE70422DB888DF80C20F4
:107C2000ADF81830DEE705238DF80C30DAE700BF39
:107C3000E02D0020FC2D0020C42E0020B02E0020BE
:107C4000C02E0020D42E00204068FFF79BBD00000E
:107C500008B50121044800F036FC18B9BDE8084019
:107C6000FFF790BD08BD00BFC02E00202DE9F341F5
:107C70009846374B1B7806460D46002B5CD00029F2
:107C80005DD009884FF6FF7399425BD06B88002B5B
:107C900058D06B689B0758D14AB92F890DF1020162
:107CA0003846FFF779FB30B102B0BDE8F0811388A8
:107CB0005788ADF8023001A8FFF71AFC044660B9F6
:107CC000BDF80230234A142101FB032358890338ED
:107CD000C01B588148F20760E6E700238375BDF8B2
:107CE000023083826B68036180F8008001211A48AA
:107CF00000F0F4FB2B882381B8F1030F6B88A3807D
:107D000004BF0423A3754FF0000508BF3368E0608B
:107D100008BFA361E780658101A9104800F0FBFA64
:107D200036B1E36833600E4B75601B89B5723381E1
:107D3000FFF78EFF0020B7E748F20160B4E748F292
:107D40000460B1E748F20360AEE748F20260ABE7D7
:107D5000D82D0020FC2D0020F42D0020B02E002076
:107D6000E02D002008B5084B1A68042A09D01968CC
:107D7000064A42F821000121184600F0AFFB00201E
:107D800008BD48F20B60FBE7CC2E0020C82D002078
:107D90002DE9F04F89B01422002103A80AF0FEFB60
:107DA000784A137803F0FF01009190463BB103A895
:107DB000FFF7E2FA0027384609B0BDE8F08F101D42
:107DC00000F0A2FB0028F5D140F6F8734FF0805286
:107DD0001B685C1C08BF6C4B6C4C08BF1B681169AE
:107DE0005269581C08BF02FB01F323610022A3F56E
:107DF00040536749E360204600F0A8FD0194074620
:107E00000028D8D11C238C2262496348DFF89CB13A
:107E100000F022FABA463D464FF003093C46019B6A
:107E2000DE6856443046FFF771FB012860D042B24D
:107E3000002A4AD0032827D13268531C02D0574B5E
:107E40009A4234D1321D06F58051106801302ED18E
:107E500004329142F9D1DBF800203AB90222012321
:107E6000CBF80060ABF8042000930BE014226243CF
:107E70004B4B0220991898544A4A4E605480013462
:107E80000881A4B245F001050AF5805ABAF5405FB1
:107E9000C5D1B9F1010F98BF0025EDB2022D03D075
:107EA000062D44D0002D4CD148F20A6783E73C49A7
:107EB00014226243881809F1FF3946600320885470
:107EC0001FFA89F90134A4B2DEE735491420604372
:107ED00001EB000C0A5400F1100208300A44CCF8FF
:107EE000046001443046FFF73FFB45F00205E9E737
:107EF000009B6BB12A4B14226243991802209854BC
:107F0000DBF800204A60274A088154800134A4B27B
:107F100000222549CBF800603046FFF725FBBBF86F
:107F20000420022A0CBF042208221543ACE70123D7
:107F300088F8003003A80023C8F80430FFF71CFAC3
:107F400039E702A8FFF7D4FAC8B10123013D037055
:107F50000A2D09D8DFE805F0060806080708070813
:107F60000F110F000023037102A90B4800F0D3F991
:107F7000FFF76EFE1FE70323F5E70223F3E748F25E
:107F8000076718E7D82D002014100010D02B002010
:107F9000345D0300242E0020B02E0020DEC0ADDEB4
:107FA000FC2D0020E02D0020C82E0020C42E002033
:107FB00073B50D460446C8B1C1B10DF10601FFF716
:107FC00037FBB0B10C4BBDF806006668142202FB0B
:107FD000003001210C3000F081FA63682E600C3310
:107FE0006B600123A372002002B070BD48F20460F0
:107FF000FAE748F20960F7E7FC2D002013B50446C4
:10800000A8B10DF10601FFF713FB98B10C4ABDF8BA
:108010000630142101FB0323DA6872B1A27A62B13F
:10802000DA680020013ADA60A07202B010BD48F2AE
:108030000460FAE748F20960F7E748F20560F4E700
:10804000FC2D002002230022FFF710BE18B10323ED
:108050000022FFF70BBE48F204607047114B1B78FB
:1080600013B50446ABB14FF6FF73984214D001A884
:10807000FFF73EFA98B10523037001230371C48012
:1080800001A9094800F047F9FFF7E2FD002002B01E
:1080900010BD48F20160FAE748F20360F7E748F2E2
:1080A0000760F4E7D82D0020B02E00200F4B1B787E
:1080B00007B5A3B101A8FFF71BFA98B10623037017
:1080C00001A90B4800F027F90A4B1A780AB10122DE
:1080D0001A73FFF7BDFD002003B05DF804FB48F202
:1080E0000160F9E748F20760F6E700BFD82D0020ED
:1080F000B02E0020E02D002007B5ADF80600ADF849
:1081000004100DF1060001A9FFF7E6FA03B05DF8CF
:1081100004FB07B51346ADF806000A4600200DF132
:108120000601FFF7D9FA03B05DF804FB07B5134663
:10813000ADF806000A460DF106000021FFF7CCFA63
:1081400003B05DF804FB20B119B103680B60002097
:10815000704748F2046070472DE9F84F3C4B1B789C
:108160000446002B6ED000286FD012220021DFF8C9
:10817000E4A00AF013FA032323804FF0000BD0464B
:1081800014274FF00109DAF80410BAF80A50BAF8C7
:1081900008600846FFF7BAF9032808BF23886288F9
:1081A00004BF03F1FF33238007FB0B832E44DB68FE
:1081B0001344638023891D4463892581B6B2334407
:1081C0006381C6F58066A389B6B2B34238BFA68183
:1081D00001F1080501F58056AE4217D92B6801332D
:1081E00014D031462846FFF7A9F9012819D010F01C
:1081F000FF0F23D00228EFD1E38884F81090761B7C
:10820000E589013305EBA605E380E5810AF1140A4F
:10821000BBF1000F02D00020BDE8F88F4FF0010B3A
:10822000B1E7E3880133E380E3896A8803331344C9
:10823000E3816B88033305EB8305CDE7A388013326
:10824000A380F6E748F20160E6E748F20460E3E75E
:10825000D82D0020FC2D002010B561B1B2FBF3F445
:1082600003FB1424A4B244B9C0E9001484608281E1
:10827000C381204610BD0E20FCE70920FAE782B03A
:1082800050E8022FC188B2EB324F4FF0000317BF06
:1082900092B241EA014142EA014104E04268B2EB94
:1082A000324F08BF012340E80212002AE8D18DF8BE
:1082B00007309DF80730002B0CBF1120002002B0C2
:1082C000704737B550E8013F9DB2C4892544848981
:1082D000A54228BF2D1B0489A54202BFBFF32F8FE3
:1082E000002207E0C5EA030540E80154002CE9D16B
:1082F0004FF001028DF803200193019B9DF80320AC
:108300000B6002F0FF0322B10B880068184403B031
:1083100030BD1846FBE70A884B889A4209D150E8DD
:10832000012FC2EA024240E80123002BF7D10120CD
:1083300070470020704737B550E8023F1FFAA3F599
:10834000C488A54202BFBFF32F8F00220DE0C4896D
:1083500025448489A54228BF2D1BC3EA054540E872
:108360000254002CE8D14FF001028DF80320019354
:10837000019B9DF803200B6002F0FF0322B14B88A4
:108380000068184403B030BD1846FBE70A884B88E4
:108390009A4209D150E8022FC2EA224240E8022361
:1083A000002BF7D1012070470020704701F01F0219
:1083B0004B090121914000EB830000F063B84B09A9
:1083C00010B501F01F040121A14000EB830000F073
:1083D0004EF8E04000F0010010BD01F01F03012243
:1083E0009A404B0900EB8300D14300F061B84B0980
:1083F00001F01F0150F82300C84000F00100704751
:108400002DE9F0474E1E760980460F4601360025BD
:1084100058F8254008EB8509E44394FAA4F4B4FA2B
:1084200084F44FEA451A202C06D10135AE42EFD82C
:108430003C462046BDE8F0875444A742F5D9214682
:108440004046FFF7BCFF0028F3D0D9F80040E443D2
:1084500094FAA4F4B4FA84F4E5E750E8002F0B464C
:1084600040E8003C9CF0000FF7D11046704750E800
:10847000002F42EA010340E8003C9CF0000FF6D1D7
:108480001046704750E8003F43EA010240E8002CE4
:108490009CF0000FF6D11046704750E8002F02EA1A
:1084A000010340E8003C9CF0000FF6D110467047F5
:1084B00050E8003F03EA010240E8002C9CF0000F66
:1084C000F6D11046704750E8002F02EB010340E858
:1084D000003C9CF0000FF6D11046704750E8003F7A
:1084E00003EB010240E8002C9CF0000FF6D110468F
:1084F000704750E8003FA3EB010240E8002C9CF0DD
:10850000000FF6D1104670470121FFF7B0BF0121DF
:10851000FFF7B8BF0021FFF7C0BF10B590B1D0E999
:10852000012301689B1ADBB20A60013BDBB2FF2B1F
:10853000026802D10020107110BD11684C1C14603B
:108540000B70F2E70E20F7E737B5054600240DF172
:1085500007008DF80740FEF799FD2A686B681168DF
:1085600099420ED9481E106011F8014CEB68298A17
:1085700001FB0434AB6811791B1ADBB2994238BF96
:1085800013719DF80700FEF7A5FD204603B030BD2E
:1085900037B5054600230DF107000C468DF807306E
:1085A000FEF774FD2A681368591C1160E968641AA3
:1085B000298AB4FBF1F41C709DF80700FEF78AFDD0
:1085C00003B030BD826810B504462AB14369016822
:1085D000006998470023A36010BD0EB403B503994A
:1085E00021B104AB01AA019300F074F802B05DF868
:1085F00004EB03B070470A2938B504460D4602D192
:108600000D21FFF7F8FFA3682268591CA160D5541B
:10861000D4E901329A4204D32046BDE83840FFF73E
:10862000D1BF38BD2DE9F84F9946DDE90A43174619
:10863000824688460A460126BA420FD24E4538BFC6
:108640004E4613F0010B01D164B900240125B9F1A4
:10865000010F1AD909F1FF397D43F8E7B2FBF7F2B0
:108660000136E9E79B070ED5B9F1000F0CBF3025A5
:108670002025A642EAD2013C29465046FFF7BBFF1F
:10868000002CF6D1E1E72025F3E7B8FBF5F39F4294
:10869000E2D9DFF83C90B8FBF5F3504619F8031027
:1086A00005FB1388FFF7A7FFB5FBF7F3BD4207D221
:1086B000BBF1000F02D00CB1A64203D3BDE8F88F86
:1086C0001D46E8E720215046013CFFF794FFF2E702
:1086D000495B03002DE9F74F0546174688460029F8
:1086E00000F0308118F8011B49B92B7B002B00F0FA
:1086F0002981284603B0BDE8F04FFFF763BF252965
:1087000040F0C080002698F800302D2B424608F13A
:10871000010823D0302B24D02B2B25D000242A2B4A
:1087200002F1010123D13B681A1D1B683A601C4409
:108730000A4613782E2B26D101324FF0000910463D
:1087400010F8011BA1F1300CBCF1090F1DD80A2350
:1087500003FB0913A3F130090246F0E746F00106D6
:10876000D1E746F00206CEE746F00406CBE711F863
:10877000013CA3F130000928DBD80A2202FB0434B3
:10878000303C0A46CBE74FF0000912F8011B01F01C
:10879000FB0068289046F8D069290ED04AD858299D
:1087A00064D006D825296DD098F80030002B99D1D7
:1087B0009BE7632962D06429F6D13A68D2F800A019
:1087C000111D8AEAEA723960A2EBEA724FF0010BDE
:1087D000092A5BDCCB4538BFCB462CB1BAF1000F80
:1087E00001DB720700D5013CB30702D5B9F1000FD8
:1087F00004D0F00702D4002C4ED10024BAF1000FAF
:1088000052DACAF1000A2D212846FFF7F4FE06F0DD
:108810000302022A05D1B9F1000F02D1002C47D181
:108820000024CDE900464B460A2251462846FFF770
:10883000F9FEB9E773294CD014D87029B4D13B683C
:108840001A1D3A60302128461C68FFF7D4FE7821B3
:108850002846FFF7D0FE00220823CDE9003221464A
:108860001022E3E775292BD078299DD139680A1D9C
:108870003A60CDE900464B46102228E03B681A1DBD
:1088800019783A602846FFF7B6FE8DE70A230BF108
:10889000010BB2FBF3F29BE7A345AFD220212846A0
:1088A000013CFFF7A8FEA6E77107B0D52B21ABE787
:1088B000A345B6D230212846013CFFF79CFEADE728
:1088C0003968CDE900460A1D3A604B460A2209681C
:1088D000ACE73B681A1D3A6016F00106D3F800A019
:1088E00020D1BAF1000F03D0504609F08AFE0646A7
:1088F000B44200D9C4B90AF1FF3A1EE02846013655
:10890000FFF779FE1AF806100029F7D1A642BFF446
:108910004BAF002C3FF448AF20212846013CFFF725
:108920006AFEF3E70026EDE720212846013CFFF729
:1089300062FEDDE72846FFF75EFE1AF8011F0029F8
:10894000F8D131E703B0BDE8F08F000007B50B4662
:1089500088B9124B1248134AC01A0E23C00800935C
:10896000114B0004114940F0010002F06AFA0E2098
:1089700003B05DF804FB4BB9084B09480C4AC01A18
:10898000C0080E2300930004074BEBE703601B684D
:10899000114603B05DF804EB184700BF60590300AF
:1089A000D0590300065C0300595B03000B5C030015
:1089B000825C03002DE9F34188B93D4B3D483E4AB6
:1089C000C01AC0080E243D4B009400043C4940F0FE
:1089D000010002F036FA204602B0BDE8F0814AB943
:1089E000334B3448374AC01AC0080E2400040094A0
:1089F000324BEBE7D0F800C0BCF1000F09D12C4B93
:108A00002C48314AC01AC0080824000400942B4B9B
:108A1000DCE74BB9264B27482C4AC01AC00809246A
:108A200000040094254BD1E74768D7F80480B3FBD6
:108A3000F8F708FB17374FB11D4B1E48244AC01AE0
:108A4000C0080924000400941C4BBFE78F0709D01D
:108A5000174B18481F4AC01AC0081024000400947D
:108A6000164BB3E712F0030F09D0114B11481A4A05
:108A7000C01AC008102400040094104BA6E7C76871
:108A8000B9420BD34C1E05691C44AC4206D8DCF835
:108A90000C40A44602B0BDE8F0416047044B0548D5
:108AA0000E4AC01AC008102400040094034B8DE73E
:108AB00060590300D0590300065C03006B5B0300A0
:108AC0000B5C0300885C03007C5C03003B5C0300E0
:108AD0008E5C0300B85C0300D05C0300F35C030011
:108AE000F7B580B92A4B2B482B4AC01AC0080E2470
:108AF0002A4B009400042A4940F0010002F0A1F939
:108B0000204603B0F0BDD0F800C0BCF1000F09D181
:108B10001F4B2048234AC01AC008082400040094B0
:108B20001E4BE8E74AB91A4B1A481F4AC01AC00838
:108B3000092400040094194BDDE74768D7F800E0EA
:108B40000EF1FF370F4209D0114B1248174AC01AD5
:108B5000C008102400040094104BCCE7C768B94249
:108B60000CD34C1E05690EFB0244AC4206D8DCF85F
:108B70001040A44603B0BDE8F0406047044B0548F0
:108B80000B4AC01AC008102400040094034BB2E73B
:108B900060590300D0590300065C03007E5B0300AC
:108BA0000B5C03007C5C03003B5C0300915B0300F7
:108BB000B75B030029DF704728DF704770B5036893
:108BC0009D6886B004460E466DB1142200216846A9
:108BD00009F0E4FCA3680593237901962BB1012BDE
:108BE0000DD06846A84706B070BD01238DF800304F
:108BF00023690293E368039363690493F1E7022313
:108C00008DF80030E3681B030293F5E708467047D0
:108C100000207047024B187A003018BF01207047BF
:108C2000782F0020034B187A0122B0FA80F05A7492
:108C300040097047782F002008B510461A4609F001
:108C400084FC002008BD000008B51422002104485F
:108C500009F0A4FC0348FFF712FB002008BD00BF89
:108C6000782F0020682F002010B5094C094B436075
:108C70002046FFF749FC40B909F042F91C23207453
:108C80008C2205490548FFF7E7FA002010BD00BF18
:108C9000782F0020285D0300DC2E0020682F0020A4
:108CA00070B5244C244E237A25463BB923492448E9
:108CB000FFF741FB306008B9606070BD3468022383
:108CC0002B72237973B1012B24D020460321FFF7A7
:108CD00075FF00232B726B6018491948BDE870407E
:108CE000FFF754BBD4E90523D21AB2F5805F28BF41
:108CF0004FF48052D4E903109208012A38BF0122B0
:108D000019441844FFF756FF50B11128DDD1012353
:108D10002B72D2E7D4E903031844FFF74DFFF3E7C2
:108D20002B7C002BC9D10146BDE87040022000F029
:108D300009B800BF782F0020902F00208C2F002032
:108D4000682F002038B5831E012B45D8234C237A89
:108D5000002B41D0022B09D1032830D0204B1B68B7
:108D60000022E2601A793AB1012A22D0637C7BBBEF
:108D7000BDE83840FFF794BFD3E905128D1AB5F569
:108D8000805F94BF521902F580529A619142EDD1F1
:108D900002284FF0000308BF19462372104B18BF7A
:108DA0000D211868FFF70AFF0E490F48FFF7EEFA8A
:108DB000DCE71A6901321A615B699A42E7E7E36806
:108DC0000133082B01D8E360D0E70023E360DFE73D
:108DD000BDE8384009F084B838BD00BF782F0020C6
:108DE000902F00208C2F0020682F002000F0FD0322
:108DF000012B08D1044B00225A74421E50425041AC
:108E00001874FFF74DBF7047782F002010B5064C3F
:108E1000201DFFF779FB28B9637C1BB9BDE8104022
:108E2000FFF73EBF10BD00BF782F00202DE9F341B2
:108E300080460D460F4801A916461F46FFF741FA26
:108E40000446A8B11C22002109F0A8FB2D0B012328
:108E5000237101A9C4F80080A760E5606661054838
:108E6000FFF759FAFFF7D2FF002002B0BDE8F0810A
:108E70000420FAE7682F00202DE9F7438146884651
:108E8000104801A917461E46FFF71BFA0446B0B169
:108E90001C22002109F082FB00250A9BA36001A986
:108EA0002571C4F80090C4E9037866610548FFF7AE
:108EB00032FAFFF7ABFF284603B0BDE8F083042089
:108EC000FAE700BF682F00202DE9F047B0F80690C0
:108ED0004479D2F800A09DF8208009FB04F4043CFA
:108EE00006460AEB0300A0420F4688BFA4EB030A24
:108EF000191DC2F800A0B1FBF9F509FB15114DB918
:108F0000A9EB0104544528BF5446BAF1000F04D11F
:108F1000BDE8F0873668013DF1E704317B19701830
:108F20002246B8F1000F0ED001461846AAEB040AFB
:108F300009F00BFBD145254436684C464FF0000143
:108F400028BF5446E1E71946F0E7FFF7E6BAF8B55F
:108F500046790146721E0546002393422D6803D3CD
:108F60000024A64202D8F8BD0133F6E70F68284670
:108F7000FFF70EFB01343946F3E72DE9F843068A83
:108F8000CD1C0746FFF7E0FA043E35440446B5FB26
:108F9000F6F5F0B14FF48073EDB28380C680013DE9
:108FA000076081464FF00008A84512D23846FFF707
:108FB000CBFA064648B163790133637108F10108C1
:108FC000C9F8000007608146EEE72046FFF7BFFFC3
:108FD00034462046BDE8F88301210430FFF77EBA0D
:108FE00010B5012104460430FFF783FA10F0FF0F9B
:108FF00004D12046BDE81040FFF7A9BF10BD1FB542
:1090000003920022009203AAFFF75EFF05B05DF80D
:1090100004FB1FB503920122009203AAFFF754FF3D
:1090200005B05DF804FB41DF70470000064B10B54A
:1090300000241C70054B1C60BFF35F8F044905487A
:1090400000F00DF9204610BD9C2F0020A02F00201D
:10905000545D0300942F002007B500230DF1070095
:109060008DF80730FEF712F8F1EE103A23F09F0367
:10907000E1EE103ABFF35F8F094B4022C3F8842121
:109080009DF80700FEF726F808F03AFF20B1FFF739
:10909000CAFF03B05DF804FB20BF40BF20BFF8E764
:1090A00000E100E0026813685268934291BFD01A51
:1090B00080680130801888BFC01A704703682DE9A6
:1090C000F0411F681D685B689D4284BF836801335F
:1090D000164688465D1BC2684168AE42044607FBDF
:1090E00002110CD87243404609F02FFAA3683E449F
:1090F0009E4288BF002623681E60BDE8F08105FB04
:1091000002F73A46404609F020FAE2686168751BAA
:109110006A4308EB070009F018FA23681D60ECE7C2
:10912000036881681A685B688B4234BF013300238F
:10913000D31A584258417047F7B5002304460DF141
:1091400007000D468DF80730FDF7A0FF2046FFF71A
:10915000E7FF10B1237C002B3CD12268A66853683E
:109160005168B14234BF01310021516030B1116802
:10917000A068814234BF013100211160E26860685B
:10918000511E072920D8DFE801F004101F141F1F0B
:109190001F182A78C2542046FFF784FF23689A6874
:1091A000824200D29860002415E02A8820F813201B
:1091B000F1E72A6840F82320EDE7D5E9006700EBE6
:1091C000C300C0E90067E6E7294602FB030009F097
:1091D000BCF9E0E704249DF80700FDF77BFF20467B
:1091E00003B0F0BDF7B506460F461446AAB10DF11F
:1091F000070000258DF80750FDF748FF3046FFF7C0
:1092000051FFA0420CD3224639463046FFF756FFA5
:109210002C469DF80700FDF75DFF204603B0F0BD2A
:109220000524F6E737B5054600240DF107008DF853
:109230000740FDF72BFF0C222146286809F0AEF904
:109240009DF80700FDF746FF03B030BD836800229C
:109250005A609A60C3E90422DA601A6070470B68AA
:109260004A684360934208BF0023016008BF43601F
:109270007047436843B10268916852680B44934257
:10928000436004BF00234360704770B544680646DE
:109290000D46206818B1B3682946984718B9236865
:1092A0002B60256070BD2468F3E74368186808B137
:1092B00002681A6070474368186870474368186806
:1092C00000B97047884203D102681A6001207047D4
:1092D00003460068F4E7000010B50D49A1F594724B
:1092E000914201D800200FE08B1ADB1003EBD373FF
:1092F0005B1002EBC30452F83330834205D802D22C
:1093000004F10802ECE7606810BD2146E8E700BF01
:10931000B05E030008B5FFF7DFFF024B002808BF6F
:10932000184608BD725D03000B7B23B14B680360D8
:109330000023037170470B6803600123F9E703689A
:109340004A68896810B5D41A8C428BBF5B18002319
:109350000360026098BF037110BD03680A688968E2
:1093600010B59C1A8C428BBF5B1A0123036002600C
:1093700098BF037110BD037910B504461BB1FFF708
:10938000DEFF206810BDFFF7E8FFFAE738B5074CAD
:10939000051E04F1080318BF1C4623682BB11A6888
:1093A00022605B6828469847F7E738BDAC2F00205D
:1093B00020B9054B01225A70FFF7E8BF012802D1FE
:1093C000014A9070F8E77047A42F002020B9034BA2
:1093D00001225A70FFF7DABF704700BFA42F0020A8
:1093E00038B50B4C237883B90A486360A3602361C6
:1093F000E36000F0A7F9054608F082FD08B900F027
:10940000ADF901232370284638BD8525FBE700BF51
:10941000A42F0020B193020037B50B4C00230DF1AF
:1094200007008DF80730FDF731FEE368013BE3608C
:10943000E56815B900F0A4F9A5709DF80700FDF7DF
:1094400049FE03B030BD00BFA42F0020012813B592
:1094500009D018B103281CD002B010BD0F4B012257
:10946000C3F88020F8E70E4C00230DF107008DF8BB
:109470000730FDF70BFE23780BB9FFF7B1FFE36868
:109480009DF807000133E3600123A370FDF722FE7E
:10949000E2E700F063F9FFF7BFFFDDE700E100E07E
:1094A000A42F002031DF70471FB500238DF807007F
:1094B0000DF10F008DF80F30FDF7E8FD08F020FDED
:1094C00050B90DF107010848FFF736FE0648FFF7CF
:1094D00027FE08B100F0F6FB9DF80F00FDF7FAFD3E
:1094E00005B05DF804FB00BF0059030007B520B1CB
:1094F00003280BD003B05DF804FB0F4B1B78012B46
:10950000F8D100F0DFFB00F0E5FBF3E700230DF1FD
:1095100007008DF80730FDF7B9FD07480378012BE8
:1095200005D10649013000F08DFB00F0B9FB9DF834
:109530000700FDF7CFFDDDE708300020A994020009
:1095400013B5124C2378FBB9114A8DF80730002867
:1095500008BF10460288A4F801200DF10700FDF7AE
:1095600095FD08F0CDFC30B90A49601C00F06AFB9B
:1095700040B900F095FB01239DF807002370FDF72B
:10958000A9FD002002B010BD8520FBE708300020B7
:1095900070620300A994020007B500230DF10700D3
:1095A0008DF80730FDF772FD08F0AAFC18B900F03D
:1095B00089FB00F08FFB9DF80700FDF78BFD044849
:1095C000FFF730FE034B00221A7003B05DF804FB76
:1095D00000590300083000202DE9F7430024DFF88C
:1095E000589005460E46A0460DF107008DF80780FD
:1095F000FDF74CFD08F084FC074638B93246294691
:109600004846FFF7EFFD044600F04AFB9DF80700CF
:10961000FDF760FD47B131462846FFF743FF42F2B0
:1096200007039842044605D0022CDDD0204603B043
:10963000BDE8F0830524F9E700590300F8B50546B5
:109640000C4604B9F8BD402C264628BF4026F7B288
:1096500039462846FFF7C0FF0028F9D1A41B35443E
:10966000EFE700001FB503788DF8003043680193E1
:1096700083688DF80830C3680393054A054B684634
:1096800053F8213052F82110984705B05DF804FBDB
:109690000C300020103000201FB503788DF800300A
:1096A0004368019383688DF80830C3680393054AC3
:1096B000054B684653F8213052F82110984705B001
:1096C0005DF804FB0C30002010300020F0B5184B82
:1096D000077891F81DE043F82720164B16460A69D3
:1096E00043F82720144B03F807E00C4684460FCCC0
:1096F00089B06D460FC594E80F0085E80F00049708
:10970000BEF1000F0AD0002E0C4A694608BF32464F
:109710000CF1040000F0F6FD09B0F0BD002E084A7F
:10972000694608BF32460CF10C0000F0DBFBF3E7A2
:10973000103000200C30002014300020659602000C
:1097400099960200044A137923B90121106091808F
:10975000184670478520704718300020074B1A685C
:10976000D2075FBFC02283F8002301221A604FF0A6
:1097700080430122C3F81825704700BF00E100E0D4
:10978000044B01221A604FF08042D2F81834DB03F8
:10979000FBD470470C000040154B07B51A687AB12E
:1097A00000221A601B680093009B4FF08043012247
:1097B000C3F808230F4B587910B95A711B689847A2
:1097C0000D4B1A6882B100221A601B680193019B3D
:1097D0004FF080430222C3F80823064B1B68012088
:1097E00003B05DF804EB184703B05DF804FB00BF5D
:1097F00000010040183000200401004000F18040CA
:1098000000F5C040002382B0036003680193019B10
:1098100002B07047800000F1A040D0F8003723F478
:109820004033C0F80037D0F8003743EA0141C0F8B0
:1098300000177047054B4FF0FF32072843F82020F0
:1098400084BF1B1883F84820704700BF20300020D9
:1098500010B5174C94F8583043BB04F13003202165
:10986000FF22013911F0FF0103F8012BF9D1C8B231
:10987000FFF7E0FF01310C29F9D1042200210D4846
:1098800008F08CFE0C4BC02283F8062340221A609D
:109890004FF4BE70FFF7B2FF084B4FF00042C3F821
:1098A0000423012384F85830002010BD0820FCE771
:1098B000203000207430002000E100E00060004013
:1098C000034B93F85800003018BF0120704700BFC9
:1098D00020300020F0B5374B1C1894F93040002C94
:1098E0001C4664DA8D78C5F34005002D0BBF0823B4
:1098F00000230C260826B34201D10420F0BD54F801
:10990000237001373FD1261844F8232086F83030E1
:1099100015B9E21882F848008A78550713D4D6079B
:1099200033D5820002F1A042D2F8005725F002059B
:10993000C2F80057204EC50800F007070122BA40C0
:10994000775D3A4372558A780D7812F0020225D07D
:109950009B0003F1804303F5C0430202D3F81015C6
:1099600021F4473121F44071C3F810152D04D3F8C8
:10997000101502F4F85205F440352A430A43C3F89F
:1099800010250020BAE70133B5E74D7800F5E07205
:109990004FF0A046AD0046F82250CBE7083B2344E9
:1099A00093F8501041EA851583F85050E9E70820F4
:1099B000A4E700BF203000207430002038B51F4CD1
:1099C000251895F93020072A17DD224492F848100F
:1099D000890903290CD14FF0A043D3F81035C340B7
:1099E00013F0010F08BF0221BDE83840FFF712BF96
:1099F000012914BF03210221F6E7D3B2072B1CD89B
:109A0000930003F1804303F5C043D3F8100540F001
:109A10000100C3F8100502F14000800080B2FFF79A
:109A2000EDFE51B195F9303054F823302BB10123BC
:109A300003FA02F2024BC3F8042338BD20300020A1
:109A4000006000404FF0A043D3F8103523FA00F037
:109A500000F00100704700002DE9F04F85B00024B0
:109A60005A4D01944FF48072012102F1804303F5B5
:109A7000C04390B21B68012B06D1D5F804330B42CA
:109A800002D0FFF7BBFE0C430432B2F5907F4FEAE1
:109A90004101EAD14E4B1B68012B0AD14FF4BE7035
:109AA000FFF7ACFE4FF0A04344F00044D3F810356C
:109AB000019314F0FF0F1AD0464F002501263442BF
:109AC00010D0AB0003F1804303F5C043D3F8100579
:109AD000D3F8101557F8253023B1C1F30141C0F375
:109AE000042098470135082D4FEA4606E7D1002C9F
:109AF00064DA00224FF0FF33CDE90223354D012710
:109B00004FF0000A344E54464FF0A04816F9012B8E
:109B1000531C46D0D2B222F0C0094FEAD90104A8A2
:109B2000084402F0070310F804CC07FA03F31CEA18
:109B3000030F36D005EB090C92099CF930C055F89B
:109B40002CB0BBF1000F0AD1032A2AD10DF1080E67
:109B50001EF801C04CEA030C0EF801C001E0032A14
:109B6000F4D009F5E07110F80C0C58F821101842E7
:109B7000C1F3014105D0022913D1032A0BD11146AB
:109B800004E003290DD1032A05D102214846FFF73D
:109B900041FE0134E4B2BBF1000F02D01146484649
:109BA000D8470AF1010ABAF1040FAFD134B14FF02E
:109BB000A043019AD3F81035934202D105B0BDE815
:109BC000F08F0193029B03939AE700BF006000406F
:109BD0007C6100402030002070300020014B1B6869
:109BE000184700BF7C3000200E4B984237B50D4619
:109BF00002D0002003B030BD00230DF107008DF826
:109C00000730FDF743FA084B1C7914B901221D6097
:109C10001A719DF80700FDF75DFA002CE9D01120BC
:109C2000E8E700BF002000407C300020034B984252
:109C300001BF034B00221A601A71704700200040D8
:109C40007C30002010B5124C2278FAB9114B196003
:109C5000037813F0010F104B1EBFD3F8042542F018
:109C60000102C3F80425D3F8002222F00102C3F850
:109C700000224378094A5B01DBB282F80D334FF4CE
:109C80000053136001232370002010BD8520FCE7E2
:109C9000883000208430002000D0004000E100E047
:109CA000064B00221A6082B01B680193019B044B93
:109CB0000122C3F804231A6002B0704700D10040AB
:109CC00000D00040024A0123C2F8083353607047B5
:109CD00000D00040064A0123C2F808335360054B08
:109CE0004FF40052C3F88020034B00221A707047D3
:109CF00000D0004000E100E088300020074B002247
:109D00001A6082B01B680193019B054BD3F80805CC
:109D1000044B1B68C0B202B0184700BF00D100401E
:109D200000D00040843000200023435082B04358CC
:109D30000193019B02B070470A4610B54FF48E7133
:109D4000FFF7F2FF136A9168C95C136A013313626B
:109D5000C0F81C1510BD8B690A4610B54FF484710C
:109D600023B9FFF7E1FFD0F8183510BDFFF7DCFF8E
:109D7000536AD168D0F81805C854536A0133536246
:109D8000F3E700001FB501238DF80030044BCDE947
:109D90000110D3E900126846904705B05DF804FB56
:109DA0008C30002030B54D4AD2F8043313F4007FD4
:109DB00085B015464FD0D2F82431002B4BD04FF44C
:109DC00092711046FFF7B0FF4FF40173C2F80833E9
:109DD000434B93F8291009B9012151603F490222F0
:109DE0008DF80020D1F88024C1F8802403929A696C
:109DF0000292DA6801920022C3E906226846D3E99A
:109E0000001290473548D0F81C315BB134494A699B
:109E10000B6A9A420A464BD991F82830002B47D159
:109E2000FFF78AFF2D4AD2F8443193B14FF4A27163
:109E30001046FFF779FF2A4B93F8291009B1012149
:109E400011609A692AB100229A61586AD968FFF7AD
:109E500099FF05B030BDD5F804335B07D2D5D5F8EE
:109E60000831002BCED01E4C1C482146FFF773FF53
:109E7000636AA2699A422346C4D1E269E1684AB1A1
:109E80002369E3600023606AA261E3616362FFF714
:109E900079FFB7E794F829200AB901226A600F4ACE
:109EA0004FF40170C2F8080300229A61586AEEE785
:109EB0004FF48E710948FFF737FF5369002BB1D07B
:109EC00051690291002391688DF80030019153612E
:109ED0006846D2E900139847A4E700BF002000407D
:109EE0008C3000202DE9F843564F047991462C22FE
:109EF00002FB0472064692F82A200D46002A40F022
:109F00009A8051490068FFF76FFE8046002840F0B4
:109F1000958029683368481C0BD04FF0A04001227F
:109F20008A40C0F8082501F5E0724FF0030C40F8B4
:109F300022C06868421C1FBF00F5E0724FF0A04CC1
:109F40004FF0000E4CF822E0AA6995F814C0C3F84F
:109F500024256A7DBCF1010F4CEA0202C3F86C258E
:109F6000C3F81405C3F80C151DD1AA68511C1FBFF6
:109F700002F5E0714FF0A0404FF0000C40F821C016
:109F8000E968481C0BD04FF0A04C01208840CCF869
:109F9000080501F5E0704FF0030E4CF820E0C3F81F
:109FA0000815C3F810252C236343FA18C2F804904F
:109FB0002A69FA50B9F1000F2AD04FF48E71306837
:109FC0002D7FFFF7B1FE30684FF4A271FFF7ACFEB2
:109FD00032681E4BC2F80433120B51B20029A8BFDD
:109FE00001F160404FEA4513BABF194802F00F056E
:109FF00000F56140DBB2B4BF435580F8003302F096
:10A000001F02012303FA02F24909124B43F82120EF
:10A0100033680422C3F800252C2303FB04730022B9
:10A02000C3E9062283F829205A61012283F82A20F5
:10A030004046BDE8F8834FF00808F9E74FF01108F3
:10A04000F6E700BF8C300020A59D020080000200D2
:10A0500014ED00E000E100E0F8B5047900682D4D52
:10A060000023C0F800352C2303FB04535B6873B155
:10A07000294BC0F80833020B53B201215B0902F0EF
:10A080001F0201FA02F22033244941F82320D0F8BC
:10A090000C65D0F81415D0F80835D0F810254FF01D
:10A0A000FF37BE42C0F8147518BF06F5E076C0F859
:10A0B0000C75C0F80875C0F810751EBF4FF0A047AA
:10A0C0004FF0020C47F826C04E1C1FBF4FF0A046B1
:10A0D00001F5E071022746F82170511C1FBF4FF0B7
:10A0E000A04102F5E072022641F822605A1C1FBF0F
:10A0F00003F5E0734FF0A042022142F82310FFF76E
:10A1000095FD2C2303FB0454002384F82A3063605C
:10A11000F8BD00BF8C3000208402020000E100E0A6
:10A120002DE9F84F224F06794FF02C0909FB0674F0
:10A1300080466569002D38D16261A16025624FF4C7
:10A140008E71006884F82850FFF7EEFDD8F8000003
:10A15000012383602146FFF7EFFD6368A1469BB9A9
:10A16000D8F800A0D4F814B0236A9B4512D8D8F8C8
:10A170000020D2F81C31002BFBD00123D3602C230C
:10A1800003FB067300225A612846BDE8F88F94F855
:10A19000283043B9DAF81C31002BF8D04946504634
:10A1A000FFF7CAFDE0E70F25E9E71125ECE700BF5F
:10A1B0008C3000200023435082B043580193019B10
:10A1C00002B070471FB501238DF80030044BCDE974
:10A1D0000110D3E900126846904705B05DF804FB12
:10A1E000B83000207FB5454AD2F82461002E63D0F4
:10A1F00010464FF49271FFF7DDFF02238DF8003017
:10A20000D2F88034C2F880340393D2F83C350293FC
:10A210003B4BDA6801920022C3E906226846D3E983
:10A2200000129047354AD2F844317BB14FF4A27105
:10A230001046FFF7BFFF324B996939B10021C3E9DE
:10A240000611D968D2F83C05FFF7BCFF2B4AD2F8BB
:10A250002031B3B14FF490711046FFF7ABFF0123EB
:10A26000D360274B596961B1D2F84C150291002295
:10A2700099688DF8002001915A616846D3E900126F
:10A2800090471E4AD2F85831A3B14FF4AC71104632
:10A29000FFF790FF1A4B596961B1D2F84C15029142
:10A2A000002299688DF8002001915A616846D3E92F
:10A2B0000012904704B070BDD2F81031002BB1D01D
:10A2C0004FF488711046FFF775FF0D4BD2F83C052F
:10A2D00099698842A6D1DC69D96864B1D2F8005284
:10A2E00025F02005C2F800521A699C61DA60DE612F
:10A2F000FFF768FF96E79C61FAE700BF0020004087
:10A30000B83000202DE9F8435C4F067991462422AD
:10A3100002FB0672044692F820200D46002A40F007
:10A32000A78057490068FFF75FFC8046002840F08F
:10A33000A28029682368481C0BD04FF0A04001225E
:10A340008A40C0F8082501F5E0724FF0030C40F890
:10A3500022C06868421C1FBF00F5E0724FF0A04C9D
:10A360004FF0000E4CF822E0AA6995F814C0C3F82B
:10A3700024256A7DBCF1010F4CEA0202C3F86C256A
:10A38000C3F80C15C3F814051DD1AA68511C1FBFD2
:10A3900002F5E0714FF0A0404FF0000C40F821C0F2
:10A3A000E968481C0BD04FF0A04C01208840CCF845
:10A3B000080501F5E0704FF0030E4CF820E0C3F8FB
:10A3C0000815C3F8102524237343FA18C2F8049023
:10A3D0002A69FA50B9F1000F39D04FF4887120681A
:10A3E0002D7FFFF7E7FE4FF490712068FFF7E2FE44
:10A3F0004FF492712068FFF7DDFE4FF4A2712068E0
:10A40000FFF7D8FE20684FF4AC71FFF7D3FE226847
:10A410001C4BC2F80433120B51B20029A8BF01F142
:10A4200060404FEA4513BABF174802F00F0500F528
:10A430006140DBB2B4BF435580F8003302F01F0225
:10A44000012303FA02F24909104B43F82120236843
:10A450000822C3F80025242303FB06730022C3E966
:10A4600006225A61012283F820204046BDE8F88385
:10A470004FF00808F9E74FF01108F6E7B830002070
:10A48000E5A102001003420014ED00E000E100E04D
:10A49000F8B5374D0479242303FB045306465B6863
:10A4A000006873B1334BC0F80833020B53B201217B
:10A4B0005B0902F01F0201FA02F220332E4941F833
:10A4C0002320D0F80032012223F02003C0F800320C
:10A4D0004FF4AC714260FFF76DFE3068C260D0F897
:10A4E0005831002BFBD00023C0F80035D0F80C65A4
:10A4F000D0F81415D0F80835D0F810254FF0FF37F4
:10A50000BE42C0F80C7518BF06F5E076C0F81475A9
:10A51000C0F80875C0F810751EBF4FF0A0474FF087
:10A52000020C47F826C04E1C1FBF4FF0A04601F595
:10A53000E071022746F82170511C1FBF4FF0A04167
:10A5400002F5E072022641F822605A1C1FBF03F593
:10A55000E0734FF0A042022142F82310FFF766FBA0
:10A56000242303FB0454002384F820306360F8BDE7
:10A57000B83000201003420000E100E001F0604329
:10A58000B3F1005F2DE9F041074638D11E4B067943
:10A59000242505FB063598466C69002C31D16A618B
:10A5A000A96000684FF49071FFF704FE4FF4AC719E
:10A5B0003868FFF7FFFD3B686A69A968C3F844156E
:10A5C000C3F8482501229A606A68AAB9D3F8202105
:10A5D000D3F858411AB9002CF8D00F2407E0002C0A
:10A5E000FBD10122DA60D3F85821002AFBD02423C2
:10A5F00003FB0686002373612046BDE8F08110242A
:10A60000FAE71124F8E700BFB8300020054A4FF000
:10A61000A043105CD3F8043523FA00F0C04300F0E7
:10A62000010070479A620300044B1A5C01239340B7
:10A630004FF0A042C2F80C35704700BF9A62030089
:10A64000044B1A5C012393404FF0A042C2F8083536
:10A65000704700BF9A62030008B50020FFF7F0FFC3
:10A660000120FFF7EDFF0220FFF7EAFF0320BDE81E
:10A670000840FFF7E5BF08B50020FFF7D5FF012030
:10A68000FFF7D2FF0220FFF7CFFF0320BDE808400D
:10A69000FFF7CABF074A4FF0A041105CD1F804355C
:10A6A0000122824022EA03001340C1F80805C1F8E4
:10A6B0000C3570479A620300054A4FF0A043105CC6
:10A6C000D3F8103523FA00F0C04300F001007047C2
:10A6D000966203000D2809D00E2809D00F2809D052
:10A6E00010280CBF03204FF0FF3070470020704748
:10A6F0000120704702207047014B185C704700BF73
:10A7000096620300C20708B501460CD54FF0A0437E
:10A710000322C3F84427C3F84827C3F84C27C3F8DB
:10A720005027FFF799FF8B070AD54FF0A0430C2263
:10A73000C3F83427C3F83827C3F83C27C3F84027A9
:10A7400008BDF0B595B01C46164608460D46FEF706
:10A7500043FC1A9B0D93CDE908640024234608228C
:10A7600005A928460A948DF82C400C94FEF751FC5C
:10A77000079B0293069B03939DF814308DF81140BC
:10A7800003F00302012A1DD1BDF81440059EC3F356
:10A79000C203C4F383148DF81030A20008230EA95D
:10A7A0002846FEF736FCC6F3952608AB00932246F2
:10A7B00002AB0EA9304600F001FC2846FEF710FC63
:10A7C00015B0F0BD022AF8D1BDF81640C3F3C2039C
:10A7D000A4098DF810300827082C264628BF082623
:10A7E0003B4632460EA92846FEF713FCA41B08ABD5
:10A7F00002AA31460EA8374400F044FC002CEBD1ED
:10A80000DBE70000014B01221A7070471D31002068
:10A810007047000070B50E4D06460FCD88B06C46EF
:10A820000FC495E80F00002E84E80F004FF00603D8
:10A83000084A0948009308BF00226946FEF746FF10
:10A8400008B1FCF72BFA054B1E7008B070BD00BFB5
:10A85000A062030005A80200EC2B0020DC300020E1
:10A8600007B5044B0093044A4023FFF76AFF03B087
:10A870005DF804FB7DA80200DD30002038B50D4BEB
:10A880000D4D002018700D4804782D5DD2B21C4685
:10A8900065B10430FFF772FE08B1FCF7FFF9084B11
:10A8A0001A7812B12378002BFBD038BD0C30FFF79B
:10A8B00037FCF1E71D31002014300020EC2B002084
:10A8C000DC30002008B50848084A0378D35C3BB167
:10A8D0000430FFF7DDFD0020BDE80840FFF79ABF18
:10A8E0000C30FFF7B9FBF6E7EC2B0020143000200A
:10A8F0000120FFF78FBF000008B5FFF7F9FF042123
:10A90000034800F0C9FA034B01225A7108BD00BF89
:10A91000585A0300002C0020037813F0040216D0CC
:10A9200003F00303012B03D0022B09D00120704751
:10A930000A6800880232C0F3831002440A60F5E717
:10A940000B684288023303EB92130B60EEE710466C
:10A95000704700002DE9F04F87B000230446851CA6
:10A960000DF107000F4690468DF80730FCF78EFB7F
:10A97000454806683E60D0E90132134401339B1B11
:10A98000824600F21C4600F5836900F21447AB4290
:10A990001BD30022B8F1000F70D0052363F3070228
:10A9A00064F38912DAF80010DAF808309DF807002D
:10A9B0000B4003330D444AF82320CAF80050FCF73B
:10A9C00089FB012007B0BDE8F08F01213046FDF77B
:10A9D00085FD4846FDF79BFD3846FDF798FDDAF802
:10A9E0000400DAF808B0029000EA0B0003300AEB2A
:10A9F000800002A9FFF790FF029B50BB0BEA030205
:10AA00000AEB820203F1020CD2680392013303EADB
:10AA10000B0B0AEB8B0B02F00302012ACDF808C0E6
:10AA2000DBF80C1022D0022A16D083463846FDF7F8
:10AA300071FD10B1029BCAF8043059463046FDF74B
:10AA40004DFDDAE901231344DAF8002001339B1AA3
:10AA50009DE70BEA0300C9E7BDF80E309B090333FD
:10AA60004FEA114B0CEB93030293DFE7BDF80C3078
:10AA7000C3F383134FEA114B6344F5E7062363F3F3
:10AA8000070264F39F528DE7F03100200B4B0C4816
:10AA9000FF2210B59A600022C3F81824C3E90022EF
:10AAA000C3F8142483F82024FEF74FFA044610B9A3
:10AAB0000448FEF7CBFB204610BD00BFF03100205C
:10AAC00044590300E062030030B50A4C71B10A4AF0
:10AAD0000A49121BD20800239A4201D1002030BD3E
:10AAE00031F82350854202D00133F5E7034654F88C
:10AAF0003300F4E760590300585A0300E42B0020A8
:10AB0000094B013903EBC000032909D8DFE801F044
:10AB10000A020406042070470079704740797047A4
:10AB2000002070470220704760590300034BD3E9AF
:10AB30000030C31A58425841704700BFF03100201E
:10AB40002DE9F04387B0FFF7F1FF0646002840F0FB
:10AB5000FB807E4DC5F81804BFF34F8F6868AC6862
:10AB600002902040033005EB800002A9FFF7D4FEDD
:10AB7000029B18B1D5F81824002A5FD004EA03021A
:10AB8000991C013305EB8202234005EB8303D26855
:10AB9000DB68049302F00303022B0392029162D15B
:10ABA000BDF80E306A484FEA9318B8F1500FC1460D
:10ABB00028BF4FF0500969F38F1309F10801ADF870
:10ABC0000E30FEF7DAF90746002800F0A880FEF7FD
:10ABD00003FA03A9002308223846FEF710FA029967
:10ABE00024EA01060136B600B14535D95FFA89F984
:10ABF0007EB3F6B2A9EB0609214003315FFA89F46E
:10AC0000B146544E05EB810108234A463846FEF70B
:10AC1000F6F936B109F10803224631463846FEF707
:10AC2000EEF9029B08F1030803EB98030293D5F8B1
:10AC30001834002B4BD1D5F810445BE02A689A42B7
:10AC400004D86A60304607B0BDE8F08304EA030028
:10AC500088E740493446D7E72140033108234A4674
:10AC600005EB8101DAE7012B59D1BDF80C303848EA
:10AC7000C3F38311062928BF062161F3891302312A
:10AC80008900ADF80C30FEF778F90746002846D069
:10AC9000FEF7A2F90023082203A93846FEF7AFF910
:10ACA0000026BDF80C20C2F38312B300964203F1D4
:10ACB0000803BCD202994A1C21400331029205EBE1
:10ACC000810104223846FEF79AF90136E9E7384651
:10ACD000FEF786F9FFF72AFF80F00100C6B2B1E760
:10ACE000E3685B7923B1236839461B68204698479F
:10ACF000E3681C68002CF3D13846FEF771F90DF1BA
:10AD000007008DF80740FCF7C1F9D5F818340BB9E6
:10AD1000029B6B609DF80700FCF7DCF9DAE7D5F8D9
:10AD2000104454B90C4B0D480D49C01AC00800041A
:10AD300040F0020000F06EF8CCE7236820469B68E4
:10AD40009847E3681C68ECE700267BE7F0310020B9
:10AD500044590300FC31002060590300905903005E
:10AD6000EC6203002DE9F74F284C80460F469246CF
:10AD700001A9012218469B46D4F80890FFF7EAFD86
:10AD800080B3019D0026A91C5E4506EB010233D16C
:10AD900000211F48FDF761FB80F310006A1C02EAE6
:10ADA000090204EB8202000405EA0903033340EAC6
:10ADB0001840D06014F8232068F3C50204F823205B
:10ADC00034F8232066F3891224F8232054F8232032
:10ADD00067F39F2244F8232002F0F80242F00102B8
:10ADE00004F8232094F820341BB1FFF7A9FE0028B3
:10ADF000FBD103B0BDE8F08F09EA020204EB820246
:10AE00005AF82630D3600136BEE700BFF03100208B
:10AE10000C36002000231A46FFF7A4BF07B5012314
:10AE2000019201AAFFF79EFF03B05DF804FB07B58E
:10AE3000CDE9002302236A46FFF794FF03B05DF8D3
:10AE400004FB1FB5CDE90123069B039301AA03234D
:10AE5000FFF788FF05B05DF804FB1FB5CDE90023BF
:10AE6000069B0293079B03936A460423FFF77AFF2E
:10AE700005B05DF804FB7FB5CDE90123089B039382
:10AE8000099B04930A9B059301AA0523FFF76AFF18
:10AE900007B05DF804FB000030B50F49D1F810246D
:10AEA000002314463CB9C468237152B9C1F8100498
:10AEB0002260184630BDE46825799D4206D024689A
:10AEC000F0E7D268116821601060F2E701330A2BC5
:10AED000E7D14FF0FF33ECE7F0310020094A38B5F5
:10AEE0000123D2F8104482F820341D4604B938BD3D
:10AEF000E3685D71236820465B689847E3681C68D7
:10AF0000F4E700BFF0310020037A052B10B50C46A2
:10AF10000FD0437A23B1084A08492046FDF75DFB6C
:10AF200007492046FDF759FB2046BDE81040FDF7D4
:10AF300049BB002AF8D0F3E7376303009398030076
:10AF400059630300C38873B504460D4633B1144AF0
:10AF500000921449144A2846FDF73FFB217A05293F
:10AF60001CD0637A4BB1A088FFF7CAFD0F4B104984
:10AF700053F820202846FDF730FB227A0D4BA0889D
:10AF800053F822600021FFF79FFD0B49034632462C
:10AF9000284602B0BDE87040FDF71FBB02B070BD8F
:10AFA00037630300446303003C630300046303004E
:10AFB00093980300686303005C6303002DE9F0438A
:10AFC00085B01F460C9D002306460C46904695F81A
:10AFD0000C902B7329463846FFF7B4FFB8F1060FE3
:10AFE00009D8DFE808F00412181F28334000314662
:10AFF0002846FDF7F2FA002229463846FFF784FF7B
:10B0000085F80C9005B0BDE8F083226831462846EB
:10B01000FDF7E3FAEFE7D4E9002331462846FDF7D0
:10B02000DCFAE8E7A36800933146D4E90023284618
:10B03000FDF7D3FADFE7E3680193A3680093314695
:10B04000D4E900232846FDF7C8FAD4E72369029320
:10B05000E3680193A36800933146D4E900232846AE
:10B06000FDF7BBFAC7E76369039323690293E368BB
:10B070000193A36800933146D4E900232846FDF7E5
:10B08000ACFAB8E708292DE9F84F80460E46174676
:10B090001C463AD8002593F80C901D7319461046AB
:10B0A000FFF750FFDFF884A0DFF884B0AE422ED95E
:10B0B00018F8052059462046FDF78FFA0135082D6E
:10B0C000F4D11849DFF86CB02046FDF786FA4FF04E
:10B0D000000A564520D918F80A507E2D03D8284674
:10B0E00007F0D6F900B92E252A4659462046FDF725
:10B0F00074FA0AF1010ABAF1080FEAD101222146D5
:10B100003846FFF701FF84F80C90BDE8F88F5146F0
:10B110002046FDF762FAD1E703492046FDF75DFAC4
:10B12000E7E700BF32630300306303002E630300D0
:10B1300028630300346303004FF48C72002107F08E
:10B140002DBA20B100F58C730022984200D17047CF
:10B1500000F8012BF9E70000C02AF0B541D0B2F5A4
:10B16000807F40D0802A40F0C5800A2304460360D7
:10B1700000F10803520944F8043F01EB82028A42BD
:10B1800033D103680C2B3ED00E2B6CD00A2B26D16A
:10B190005A4D5B4900F1A006426955F8044B876897
:10B1A000C2F307237C40CB5C6340140E10300C5D6F
:10B1B00083EA0443D4B20C5D83EA0463C2F3074418
:10B1C0000C5D83EA042350F8044C836063400468F8
:10B1D000C36063400361534043618642DCD1002079
:10B1E0008AE00C23C2E70E23C0E78B784D781B045E
:10B1F00043EA05230D782B43CD7843EA056344F8F1
:10B20000043F0431BBE73D4C3D4900F1C005C26934
:10B2100054F8046B8768C2F307237E40CB5C73400D
:10B22000160E18308E5D83EA0643D6B28E5D83EA31
:10B230000663C2F307468E5D83EA062350F80C6C62
:10B240008360734050F8086CC360734050F8046C1E
:10B250000361734006684361734083615340C36177
:10B260008542D4D1BBE7254D254900F1E006446A6B
:10B2700055F8042B8768C4F307237A40CB5C8769B1
:10B280005340220E20308A5C83EA0243E2B28A5C99
:10B2900083EA0263C4F307428A5C83EA022350F81C
:10B2A000142C8360534050F8102CC360534050F866
:10B2B0000C2C03615340DAB243618A5C7A401F0E62
:10B2C000CF5D82EA0762C3F30727C3F30743CF5D6D
:10B2D000CB5C82EA072282EA034350F8042C8361A4
:10B2E00053400268C3615340036263404362864235
:10B2F000BDD174E76FF01F00F0BD00BFC87403003C
:10B30000C76303002DE9F04F47680D683B684C6840
:10B310008E68C968DFF89882DFF898E2DFF898C293
:10B320005D407B685C40BB685E40FB684B400168E9
:10B330008FB049100139009107F1300151F8107CAC
:10B340000197EFB251F8200C58F8277087EA0009EE
:10B350001F0E95485EF8277089EA0709C4F307278E
:10B360004FEA146B5CF827705EF82BB089EA070986
:10B37000C6F30747203150F8277089EA0709E7B27A
:10B380005FFA89F058F82770029051F83C0C87EA70
:10B39000000A2F0E84485EF827708AEA070AC6F36F
:10B3A0000727C4F307445CF827708AEA070AC3F347
:10B3B000074750F827708AEA070AF7B2CAF307204E
:10B3C000039058F8277051F8380C474087EA0B076C
:10B3D000C3F3072B74485CF82BB087EA0B07C5F35F
:10B3E000074BDBB250F82BB058F8233087EA0B0735
:10B3F000C7F30740360E049051F8340C5EF826600F
:10B40000C5F307254340684873405CF8256050F851
:10B41000244051F82C0C059073406340C3F307405F
:10B42000069051F8280C0790F8B20890C3F3072053
:10B4300009901D0EC9F30740DBB20A900D93009BE3
:10B440004FEA1A600B90002B51F8240C0C905FFA15
:10B450008AF4C7F3072B4FEA1966CAF3074AC9F300
:10B4600007294FEA17675CDC5049039B019811F8E4
:10B4700003C0029B0C5DCB5C43400498085C83EAEC
:10B480000C2383EA0043485D059D83EA006311F8BD
:10B490000B0013706C4084EA00240698089D085C39
:10B4A0004D5D84EA0044885D079E84EA0064099843
:10B4B000085C754085EA00250A980C9E085C85EAC0
:10B4C00000450B98085C85EA00650D98085C7040A3
:10B4D00011F8096080EA062011F80A60C95D80EA67
:10B4E000064080EA0161180A5070180C1B0E90701B
:10B4F000D370230A5371230C93712B0A53722B0CB4
:10B5000093720B0A14711572240E2D0E117353735E
:10B510000B0C090ED471D5729373D1730FB0BDE8C3
:10B52000F08F029B5EF8255058F823301E4858F8DB
:10B5300024405EF827706B40019D6B40039D5CF8D2
:10B5400025505D40049B50F823305D405EF8263066
:10B550005C40059B5C405CF82B305C40069B50F8DF
:10B5600023305C40089B58F823600B9B5EF8233027
:10B570005E40079B5E40099B5CF823305E400A9B5F
:10B5800050F823305E400D9B58F823307B400C9FD1
:10B590007B405CF829707B4050F82A707B40009F0C
:10B5A000013F0097CAE600BFC86C0300C7630300F1
:10B5B000C8640300C8700300C86803002DE9F04F99
:10B5C00047680C683B684E688D68C968DFF89C82E4
:10B5D000DFF89CE2DFF89CC25C407B685E40BB68A1
:10B5E0005D40FB684B4001688FB049100139009104
:10B5F00007F13001E7B251F8100C58F827700190AC
:10B6000051F8200C87EA0009370E96485EF827703B
:10B6100089EA0709C3F307274FEA136B5CF8277021
:10B620005EF82BB089EA0709C5F30747203150F8C7
:10B63000277089EA0709DFB25FFA89F058F82770A6
:10B64000029051F8340C87EA000A270E85485EF80C
:10B6500027708AEA070AC5F30727C3F307435CF894
:10B6600027708AEA070AC6F3074750F827708AEA64
:10B67000070AEFB2CAF30720039058F8277051F871
:10B68000380C474087EA0B07C6F3072B75485CF870
:10B690002BB087EA0B07C4F3074BF6B250F82BB078
:10B6A00058F8266087EA0B07C7F307402D0E049071
:10B6B00051F83C0C5EF82550C4F307244640694815
:10B6C0006E405CF8245050F8233051F8280C079055
:10B6D0006E405E40F8B251F82C3C0890C6F307204B
:10B6E00005930990CAF30743C9F3074006930A90EC
:10B6F0004FEA1A600B9051F8240C0C90C6F30740E7
:10B700000D9000980028C9F3072B4FEA17634FEA02
:10B710001664F5B25FFA8AFAC7F307274FEA196988
:10B720005CDC51490398019E11F800C00298085C46
:10B730007040049E8E5D80EA0C2080EA06400E5D1B
:10B7400011F80B4080EA06604E5D059D10706E405A
:10B7500086EA0426069C0C5D86EA0446CC5C099BBE
:10B7600086EA0464CE5C089BCD5C079B5D400A9B27
:10B77000CB5C85EA062585EA03450B9B0C9ECB5CDA
:10B7800085EA036511F80A307340CE5D83EA06232B
:10B790000D9E8E5D11F8091083EA064383EA01636A
:10B7A000010A5170010C9170000E210AD070517184
:10B7B000210C9171290A5172290C9172190A147184
:10B7C0001572240E2D0E13735173190C1B0ED471A8
:10B7D000D5729173D3730FB0BDE8F08F029E5EF8FF
:10B7E000244058F826601F485EF823305EF8299000
:10B7F0005CF827707440019E7440039E5CF82660DC
:10B800007440049E50F82660744058F825605E40ED
:10B81000059B5E405CF82B305E40069B50F8233061
:10B820005E40089B58F823500B9B5EF823305D4028
:10B83000079B5D40099B5CF823305D400A9B50F8F4
:10B8400023300C985D4058F82A3083EA09034340BE
:10B850007B400D98034F57F82070009801387B40CB
:10B860000090C7E6F07D0300F0740300F07503005C
:10B87000F0810300F079030010B501291446214638
:10B880001A4603D1FFF73EFD002010BDFFF796FEDC
:10B89000FAE72DE9F041B2F5C07FADF5467D0646E9
:10B8A0008846154679D84FF4D07200215EA806F07C
:10B8B00075FE18A8FFF740FC64AF6BBA2A46002457
:10B8C000ADF88A314146302338468DF88F31ADF8D6
:10B8D000884106F03AFE802304AA7B5511461935AB
:10B8E000234602F8013B0133202BFAD14FF480723A
:10B8F00018A8FFF731FC002410220021684606F04A
:10B900004DFEA8460DF287136A46A3F11007117881
:10B9100017F8010F41409F4202F8011BF7D1B8F11F
:10B92000100F6B4694BFA8EB0808A8F110086A46F0
:10B93000012118A8FFF7A0FF07F11003B8F1000FCD
:10B94000E2D10CAB18191022694606F0FEFD9DF8F5
:10B950007B3110340133302C8DF87B31CCD14FF456
:10B9600080720CA918A8FFF7F7FB06F1300414AB9E
:10B970001A46012118A8FFF77FFF3046102214A9AC
:10B98000103606F0E2FDB442F1D118A8FFF7D9FB5A
:10B9900000200DF5467DBDE8F0816FF03700F8E737
:10B9A0002DE9F0438DB004460D4630220021684653
:10B9B00006F0F4FD002604F10F0904F120086F469B
:10B9C0000DEB0603494600E001460A7808460132BD
:10B9D000D2B200F801290AB9A142F5D122460121CB
:10B9E00040461036FFF748FF302EE8D16B1E2F354A
:10B9F0003A7813F8011F4A40AB4207F8012BF7D100
:10BA000069464FF480724046FFF7A6FB102208A952
:10BA1000204606F09AFD00200DB0BDE8F0834FF4FB
:10BA2000A072002106F0BABD10B5044638B120302E
:10BA3000FFF787FB04F5A07300229C4200D110BDE4
:10BA400004F8012BF9E72DE9F0418369B3F5C07FD4
:10BA5000E0B00446884617462DD8C3F5C07393421C
:10BA600029D34FF4C0720021684606F097FDD4F840
:10BA70003831A269D4F83C01694698470546E8B9CF
:10BA8000A669B8F1000F07D037B10DEB06003A46B2
:10BA9000414606F05AFD3E44324669466846FFF785
:10BAA000F8FE69462046FFF77BFF01232361284605
:10BAB00060B0BDE8F0816FF03705F8E76FF033054F
:10BAC000F5E72DE9F041044688B088461746002185
:10BAD000202204F1200568461E4606F05FFD284638
